:020000040800F2
:10000000B80E0020C901000885130008690D00081A
:1000100081130008F1050008DF2800080000000037
:10002000000000000000000000000000951A000819
:100030006508000800000000C117000845220008FC
:10004000E3010008E3010008E3010008E301000800
:10005000E3010008E3010008E3010008E3010008F0
:10006000E3010008E3010008E3010008E3010008E0
:10007000E3010008E3010008E3010008E3010008D0
:10008000E3010008E3010008E3010008E3010008C0
:10009000E3010008E3010008E3010008E3010008B0
:1000A000E3010008E3010008E3010008E3010008A0
:1000B000E3010008B5220008E3010008E30100089D
:1000C000E3010008E3010008E3010008E301000880
:1000D000E3010008E301000855240008E3010008DB
:1000E000E3010008E3010008E301000800F002F862
:1000F00000F05AF80AA090E8000C82448344AAF168
:100100000107DA4501D100F04FF8AFF2090EBAE865
:100110000F0013F0010F18BFFB1A43F0010318473B
:100120005C3100007C3100000A444FF0000C10F8F4
:10013000013B13F0070408BF10F8014B1D1108BF65
:1001400010F8015B641E05D010F8016B641E01F805
:10015000016BF9D113F0080F1EBF10F8014BAD1C55
:100160000C1B09D16D1E58BF01F801CBFAD505E073
:1001700014F8016B01F8016B6D1EF9D59142D6D3CD
:10018000704700000023002400250026103A28BFF5
:1001900078C1FBD8520728BF30C148BF0B607047F9
:1001A0001FB51FBD10B510BD00F058F81146FFF780
:1001B000F7FF02F0A3FC00F076F803B4FFF7F2FFBC
:1001C00003BC00F07FF80000094880470948004759
:1001D000FEE7FEE7FEE7FEE7FEE7FEE7FEE7FEE7F7
:1001E000FEE7FEE704480549054A064B7047000054
:1001F00055220008ED000008B8080020B80E0020C5
:10020000B80A0020B80A00204FF0000200B51346DB
:1002100094469646203922BFA0E80C50A0E80C5026
:10022000B1F12001BFF4F7AF090728BFA0E80C50D7
:1002300048BF0CC05DF804EB890028BF40F8042BD0
:1002400008BF704748BF20F8022B11F0804F18BF3D
:1002500000F8012B7047704770477047754600F0F3
:100260002BF8AE4605006946534620F00700854648
:1002700018B020B5FFF7B6FFBDE820404FF00006EC
:100280004FF000074FF000084FF0000B21F007017E
:10029000AC46ACE8C009ACE8C009ACE8C009ACE8C1
:1002A000C0098D46704710B50446AFF30080204664
:1002B000BDE81040FFF781BF004870475408002098
:1002C0007047000001491820ABBEFEE7260002007F
:1002D00010B5012000F021F80446552C01D1002072
:1002E00010BD5521012000F03BF8322002F024FB24
:1002F000012000F012F8044603480470552C01D187
:100300000020EDE70120EBE71F00002010B500BF43
:10031000FFF7DEFF0028FBD110BD70B504460025B5
:1003200000F0FCFDA02000F0C5FD00F04DFE201205
:1003300000F0C0FD00F048FEE0B200F0BBFD00F0B0
:1003400043FE00F0EBFDA12000F0B4FD00F03CFE08
:10035000002000F077FD054600F00CFE284670BD39
:1003600070B504460D4600F0D9FDA02000F0A2FDB6
:1003700000F02AFE201200F09DFD00F025FEE0B204
:1003800000F098FD00F020FE284600F093FD00F0FC
:100390001BFE00F0EFFD052002F0CEFA70BD00005C
:1003A00070B5002400254D48C07830B1102823D006
:1003B000202876D0302873D17FE00121084601F053
:1003C000A1F8022000F016F900214FF4CA5000F005
:1003D000CBF9002141F6501000F0C6F900214FF48E
:1003E000CB5000F0C1F900203D49A1F800010021E7
:1003F0003B48A0F802116EE00021012001F082F8D4
:10040000002001F065F80446052C3ADA00200FE0E0
:1004100000EB400101EBC001324A02EB0111097807
:100420002F4AB2F80021914200D10125411CC8B2E7
:100430000528EDDBE5B92A48B0F80001C0B128482D
:1004400090F8000104EB440101EBC401254A02EBE2
:100450000111087004EB440101EBC40102EB01102F
:1004600000F028FB20480078401C1F49087008E075
:10047000002004EB440101EBC4011A4A02EB011114
:1004800048600F21002001F03DF802F047FB01F029
:1004900065F901F0C5F8012000F0ACF81BE000E0C0
:1004A00018E00021012001F02DF801F057F901F0CA
:1004B000B7F8012000F09EF80DE00848807908495F
:1004C000A1F800010846B0F800114FF4CA5000F03E
:1004D0004BF900E000BF00BF70BD00000402002027
:1004E0002600002024020020670100202DE9F041B1
:1004F0003C48C0780611022000F0EAFF06EB8000BD
:10050000394901EB401090F80080022000F0E0FF34
:1005100006EB8000344901EB401087780024314815
:10052000057901E0601CC4B204EB440000EBC40098
:100530002E4901EB00100078404501D0052CF1DB7D
:10054000052C48DA092D46DA00201DE0052101EBD3
:100550004001491C234A515C052202EB4002214B19
:100560009A5C41EA022304EB440101EBC4011F4AF7
:1005700002EB01110E317A1E02EB820201EB8202C4
:10058000411C22F81130C8B2A842DFDB002501E08F
:10059000681CC5B2681D1349085CFF2801D0142DE2
:1005A000F6DB142D0CDA04EB440000EBC4000F4919
:1005B00001EB00100E30791E01EB810120F8215073
:1005C00004EB440101EBC401084A02EB011000F006
:1005D00071FA02F0A3FA01F0C1F801F021F8BDE8C8
:1005E000F0810000040200202600002024020020E8
:1005F00000BFFEE710B50446072009498870822035
:10060000C87000200871842048715A208871012028
:10061000C871002008720846447200F003F810BD4B
:100620006901002010B500240DE000BF40210948F9
:1006300002F084F80028F9D00748015D054802F06F
:100640004AF9601CC4B204488078C01CA042ECDCAB
:1006500010BD0000004400406901002010B516489C
:100660000078012827D11548807818280AD004DCA2
:1006700016280DD0172814D110E0192805D02028ED
:100680000FD108E000F026F80CE0FFF789FE09E042
:1006900000F0B2FE06E000F0E7F803E0FFF726FF07
:1006A00000E000BF00BF0020034908700448007844
:1006B000401C0349087010BD68010020040200209E
:1006C0002400002010B501F049F80120FFF792FF47
:1006D00010BD000010B51448C07810B110281FD10B
:1006E0000FE0022000F0F4FE012809D100210220D1
:1006F00000F008FF02F012FA01F030F800F090FF6D
:100700000FE0022000F0E4FE48B90121022000F0D1
:10071000F9FE02F003FA01F021F800F081FF00E099
:1007200000BF00BF10BD00000402002070B50446E9
:100730000D4604F5004086B205200A4988708220E3
:10074000C870301208714E711DB120128871CC71C1
:1007500004E0FF20034988710020C871FFF762FFA1
:1007600070BD00006901002070B505460C460520EB
:10077000064988708220C870281208714D712012B5
:100780008871CC71FFF74EFF70BD00006901002039
:100790002DE9F04105460C4626785EB3281216492D
:1007A00008714D71F01C88708220C87000201DE017
:1007B000014600EBD1725210A0EB420252B900EB9D
:1007C000D1725310A21C32F813201312821D0A4F4B
:1007D000BB5409E0014600EBD1725310A21C12F881
:1007E0001330821D044FBB54411CC8B2B042DFDB42
:1007F000FFF718FFBDE8F081690100202DE9F04105
:1008000005460C4648F20300284486B227460520D8
:10081000064988708220C870301208714E713812F3
:100820008871CF71FFF7FEFEBDE8F08169010020FD
:1008300070B504460E46F01C094988708220C870C5
:10084000201208714C71002505E02021A81D044AE2
:100850001154681CC5B2B542F7DBFFF7E3FE70BD6B
:10086000690100207047000010B5002000F030FE44
:10087000044604EB440101EBC4010D4A02EB0110F4
:1008800000F018F8002141F67010FFF76DFF00210D
:100890004FF4CC50FFF768FF002141F69010FFF7AE
:1008A00063FF02F03BF900F059FF00F0B9FE10BD04
:1008B0002402002070B504462078401E00EB800022
:1008C000F02101EB401085B2FF212846FFF748FDDB
:1008D000B0212046FFF798FC70BD00002DE9F041E3
:1008E0000024F025A046DCE02846FFF716FD23286B
:1008F0007DD1691C88B2FFF710FD04EB440101EBC8
:10090000C4016B4A02EB01110870A91C88B2FFF701
:1009100004FD04EB440101EBC401654A02EB011143
:10092000496841EA006004EB440101EBC40102EBB9
:1009300001114860E91C88B2FFF7EFFC04EB4401A9
:1009400001EBC4015A4A02EB0111496841EA004037
:1009500004EB440101EBC40102EB01114860291DC5
:1009600088B2FFF7DAFC04EB440101EBC401504A02
:1009700002EB0111496841EA002004EB440101EB5C
:10098000C40102EB01114860691D88B2FFF7C5FC84
:1009900004EB440101EBC401454A02EB0111496833
:1009A000084304EB440101EBC40102EB0111486070
:1009B000A91D88B2FFF7B1FC04EB440101EBC401AF
:1009C0003B4A02EB01114870002757E0002651E036
:1009D000E91D102202FB071101EB460188B2FFF767
:1009E0009CFC04EB440101EBC401314A00E054E0FB
:1009F00002EB01110E3107EB870201EB820131F8A6
:100A0000161041EA002104EB440000EBC400284A20
:100A100002EB00100E3007EB870200EB820020F89B
:100A20001610E91D102202FB071101EB4601491CBB
:100A300088B2FFF772FC04EB440101EBC4011C4ACD
:100A400002EB01110E3107EB870201EB820131F855
:100A50001610084304EB440101EBC401144A02EBF5
:100A600001110E3107EB870201EB820121F816001C
:100A7000701CC6B2082EABDB781CC7B204EB440076
:100A800000EBC4000A4901EB00104078B8429DDC3D
:100A9000601CC4B205F1A00085B208F1010000F0AD
:100AA000FF08B8F1050FFFF61FAFBDE8F0810000A9
:100AB000240200202DE9F04104462078401E00EB7E
:100AC0008000F02101EB401085B223212846FFF77A
:100AD00047FC21786A1C90B2FFF742FC6268110E55
:100AE000AA1C90B2FFF73CFC6268C2F30741EA1C03
:100AF00090B2FFF735FCA288C2F307212A1D90B2FD
:100B0000FFF72EFC21796A1D90B2FFF729FC61786E
:100B1000AA1D90B2FFF724FC002736E0002625E04E
:100B200007EB870304F10E0202EB830232F8162072
:100B3000110AEA1D102303FB072202EB460290B2C2
:100B4000FFF70EFC07EB870304F10E0202EB8302B2
:100B500012F81610EA1D102303FB072202EB4602CF
:100B6000521C90B2FFF7FCFB701CC6B207EB870269
:100B700004F10E0131F8220000EBD071012202EBEA
:100B80006101B142CCDC781CC7B26078B842C5DCE8
:100B9000BDE8F0812DE9F041024600250026002045
:100BA00000230024002791F803C00CF00F0591F8F2
:100BB00003C00CF0100CBCF1000F03D091F802C080
:100BC0004CEA050591F800C0BCF1000F31D0146863
:100BD00000202BE04FF0010C0CFA00F3B1F800C03C
:100BE0000CEA03069E4220D183004FF00F0C0CFA52
:100BF00003F7BC4305FA03FC4CEA040491F803C074
:100C0000BCF1280F06D14FF0010C0CFA00FCC2F821
:100C100014C00AE091F803C0BCF1480F05D14FF0B1
:100C2000010C0CFA00FCC2F810C0401C0828D1D3FB
:100C30001460B1F800C0BCF1FF0F34DD546800202F
:100C40002EE000F1080C4FF0010808FA0CF3B1F89F
:100C500000C00CEA03069E4221D183004FF00F0C26
:100C60000CFA03F7BC4305FA03FC4CEA040491F8C0
:100C700003C0BCF1280F05D100F1080C08FA0CF8EC
:100C8000C2F8148091F803C0BCF1480F07D100F1FD
:100C9000080C4FF0010808FA0CF8C2F81080401C4C
:100CA0000828CED35460BDE8F0810000F0B50A46B4
:100CB000002300240021002500F00046B6F1004F7B
:100CC00002D11D4EF16901E01B4E7168C0F303456E
:100CD00083B200F44016B6F5401F08D121F07061D0
:100CE000154E766826F07066134F7E6012E000F4B1
:100CF0008016B6F5801F06D1032606FA05F4A14337
:100D000041F0706106E0460D360103FA06F6B14384
:100D100041F0706122B1460D360103FA06F6314307
:100D200000F00046B6F1004F02D1034EF16101E040
:100D3000014E7160F0BD000000000140024600203D
:100D400093680B400BB1012000E000207047016167
:100D500070470AB1016100E04161704701480068D5
:100D6000704700009001002000BFFEE710B5002092
:100D70000F4908600F48006820F00F000D49086017
:100D80000846006840F00300086000200A49C1F8E6
:100D9000A001022001F0F6FD0120054908600220B3
:100DA00001F0F0FD00200449C1F8A40110BD0000CD
:100DB000A4812142040C01400080214208B5012198
:100DC000082000F01FFD4FF44070ADF80000102027
:100DD0008DF8030003208DF8020069460448FFF7F0
:100DE000D9FE4FF440710248FFF7B1FF08BD000083
:100DF000000C014010B500200F4908600F48006842
:100E000020F00F000D4908600846006840F003001C
:100E1000086001200A49C1F8A001022001F0B2FDDA
:100E2000012005490860022001F0ACFD00200449C2
:100E3000C1F8A40110BD0000A4812142040C0140AE
:100E40000080214270B5054600241748006820F054
:100E50000F00154908600846006840F00800086067
:100E6000002616E0002011490860022001F08AFDEA
:100E700001200F49C1F8A4016006040E0B48843814
:100E8000006808B1601CC4B2012001F07BFD701C39
:100E9000C6B2082EE6DB15B9FFF7ACFF01E0FFF79D
:100EA00065FF204670BD0000040C0140A481214272
:100EB0000080214270B504461548006820F00F00FC
:100EC000134908600846006840F0030008600020ED
:100ED00010490860002517E0E0090E49091F086065
:100EE0006006040E022001F04DFD01200A49C1F800
:100EF000A401022001F046FD0020064908600220FE
:100F000001F040FD681CC5B2082DE5DB70BD000096
:100F1000040C0140A48121420080214210B51248F6
:100F2000006820F00F00104908600846006840F093
:100F30000300086001200D49086001F023FD012035
:100F40000B49C1F8A401052001F01CFD0020074950
:100F50000860052001F016FD00200549C1F8A40134
:100F6000022001F00FFD10BD040C0140A0812142C0
:100F70000080214210B51148006820F00F000F4991
:100F800008600846006840F00300086000200C4933
:100F900008600C49C1F8A001042001F0F3FC012015
:100FA00007490860052001F0EDFC01200549C1F862
:100FB000A001042001F0E6FC10BD0000040C01407B
:100FC000A48121420080214210B500241548006808
:100FD00020F00F00134908600846006840F0080040
:100FE0000860012010490860022001F0CBFC0120BC
:100FF0000E49C1F8A401022001F0C4FC07E0601C06
:10100000C4B2FA2C03DDFFF7B5FF012010BD06487E
:10101000803800680028F2D10349091D086000BF2C
:10102000F4E70000040C0140A0812142008021422D
:1010300070B505460C4645F2555000F02BF8284691
:1010400000F01CF8204600F01FF800F00FF800F048
:1010500001F870BD4CF6CC400149086070470000B3
:101060000030004010B500F001F810BD4AF6AA208B
:1010700001490860704700000030004001494860A5
:101080007047000000300040014988607047000050
:101090000030004001490860704700000030004007
:1010A00008B50121042000F0ADFB4FF48050ADF8ED
:1010B000000010208DF8030003208DF8020069461F
:1010C0000348FFF767FD00200249086008BD0000E3
:1010D00000080140B001214210B501200449087008
:1010E00004484860052048700846FFF7E3FC10BD3F
:1010F000A40700207C7A5F1B2DE9F84F9B4890F8ED
:101100000A9000270024A046A246A3460020009093
:101110009748007800287CD094480078232878D11C
:101120009248C0792328FAD19048C07A2328F6D172
:101130008E48C07800068D49097900EB01408B4943
:10114000497900EB01208949897900EB010887483A
:1011500090F808A0D346407801287BD100F0B8F978
:10116000002877D000208349088000BF25E000EBED
:10117000400101EBC001804A02EB01114968414581
:1011800006D1012100917B490988491C794A1180C7
:1011900000EB400101EBC001774A02EB0111097835
:1011A00049B100EB400101EBC00102EB01114978AC
:1011B000594401F0FF0B411CC8B20528D7DBBBF135
:1011C000050F06DD012000906A480088801C6949EF
:1011D000088000980028A2D166480088001D654953
:1011E000088001E0781CC7B207EB470000EBC7009E
:1011F000614901EB0010007808B1052FF2DB052FE3
:1012000007DA5C48008808305A49088039460020CF
:1012100000E0A6E000F076F907EB470000EBC7001E
:10122000554901EB0010C0F8048007EB470000EBC4
:10123000C70001EB001080F801A01FFA88F14FF4FD
:10124000CB50FFF791FA514641F65010FFF78CFA58
:1012500087E0FFE7002680E006EB460000EBC600D3
:10126000454901EB00104068404574D106EB46004B
:1012700000EBC60001EB0010007A484560D006EB99
:10128000460000EBC60001EB001080F8089001E07A
:10129000601CC4B2394800EB4410008806EB4601DC
:1012A00001EBC601344A02EB01110978884201D0F2
:1012B000052CEDDB052C43DA002535E049FA05F075
:1012C00000F00100B8B161192C4A02EB4111097D0F
:1012D000491EC8B2012100F073FB4BF2D510611911
:1012E000264A02EB411108834BF6CF20611902EB2D
:1012F0004111488316E06119204A02EB4111097D32
:10130000491EC8B2002100F05BFB4BF2CF606119AF
:101310001A4A02EB411108834BF6AA70611902EBDD
:1013200041114883681CC5B206EB460000EBC600BD
:10133000114901EB00104078A842BFDC00F010F921
:10134000002006EB460101EBC6010B4A02EB01113E
:10135000488105E0FFE7701CC6B2052EFFF67CAFA2
:1013600000BF002002490870BDE8F88FF801002096
:1013700022000020A80100202402002026000020D6
:1013800000BFFEE77047000070B5002100230F2268
:10139000C47804B3154C246804F4E064C4F5E06434
:1013A000210AC1F10403CA40447804FA03F18478A5
:1013B0001440214309010E4C0678A155047804F02D
:1013C0001F050124AC4005786D11AD0005F1E02545
:1013D000C5F8004109E0047804F01F050124AC4081
:1013E000044D0678761145F8264070BD0CED00E0FE
:1013F00000E400E080E100E070B52D48C078050908
:10140000022000F065F82844C6B2042D07D10F2150
:10141000002000F077F80120FFF7ECF847E02548BE
:1014200000EB46100088E0B30320FFF7E3F8002448
:101430003AE004EB440000EBC4001F4901EB00104C
:1014400000781C4901EB4611098888422AD12146BF
:10145000002000F057F804EB440000EBC400164AEB
:1014600002EB0010017841F67010FFF77DF904EBF4
:10147000440000EBC400104A02EB001041784FF426
:10148000CC50FFF771F904EB440000EBC4000A4AAA
:1014900002EB0010808881B241F69010FFF764F9EA
:1014A00004E004E0601CC4B2052CC2DB00BF70BDC8
:1014B00004020020260000202402002010B5FFF7BF
:1014C0000DFA01F02BFB00F049F900F0A9F810BD6E
:1014D000014621B1012906D002290ED108E00848B1
:1014E00000780011704706480078C0F34000F9E723
:1014F0000348007800F00100F4E70020F2E7000064
:101500006601002020B101280ED0022823D117E067
:10151000124A127802F00F02104B1A701A46127813
:1015200042EA01121A7017E00C4A127802F0FD022A
:101530000A4B1A701A46127842EA41021A700BE0FE
:10154000064A127802F0FE02044B1A701A4612780C
:101550000A431A7000E000BF00BF70476601002018
:1015600070B50220FFF7B4FF8006050E002452E09C
:101570002A4800EB45100088E8B3284A02EB4512E0
:1015800002F116014FF4A05202EB0410FFF700F92C
:10159000224800EB4510408B4BF6CF21884208D102
:1015A0004FF4A05101EB04104FF6E071FFF726F95C
:1015B00007E04FF4A05101EB04104FF47C41FFF71A
:1015C0001DF9164A02EB451202F11C014FF4A85214
:1015D00002EB0410FFF7DCF8104800EB4510C08B5D
:1015E0004BF2EE2188420AD14FF4A85101EB0410CE
:1015F0004FF4784100E00AE0FFF700F907E04FF40C
:10160000A85101EB04104FF4B651FFF7F7F8601C36
:10161000C4B2681CC5B2042CAADB70BD2600002031
:1016200070B50220FFF754FF8006050E00248EE0FF
:10163000494800EB4510008800287BD0464A02EB61
:10164000451211884FF4805202EB0410FFF78CF81A
:101650004FF4805101EB04100121FFF767F83E4A77
:1016600002EB451251884FF4885202EB0410FFF749
:101670007BF84FF4885101EB04100121FFF756F875
:10168000354A02EB4512918A4FF4905202EB041056
:10169000FFF76AF84FF4905101EB04100121FFF7B6
:1016A00045F82D4A02EB4512111D4FF4985202EBFA
:1016B0000410FFF76DF8284A02EB451202F11601FB
:1016C0004FF4A05202EB0410FFF762F8224800EB3F
:1016D0004510408B4BF6CF21884208D14FF4A051E2
:1016E00001EB04104FF6E071FFF788F807E04FF4C4
:1016F000A05101EB04104FF47C41FFF77FF8164A2C
:1017000002EB451202F11C014FF4A85202EB041047
:10171000FFF73EF8104800EB4510C08B4BF2EE216E
:10172000884208D14FF4A85101EB04104FF47841DE
:10173000FFF764F807E04FF4A85101EB04104FF4F1
:10174000B651FFF75BF8601CC4B2681CC5B2042C2C
:10175000FFF66EAF70BD00002600002010B500241B
:101760002BE04FF4805101EB04100021FEF7DEFF67
:101770004FF4885101EB04100021FEF7D7FF4FF41E
:10178000905101EB04100021FEF7D0FF4FF4985167
:1017900001EB04100E21FFF74BF84FF4A05101EBC1
:1017A00004100421FFF744F84FF4A85101EB041092
:1017B0000221FFF73DF8601CC4B2042CD1DB10BD40
:1017C0007047000029B1064AD2690243044BDA612E
:1017D00004E0034AD2698243014BDA61704700009A
:1017E0000010024029B1064A12690243044B1A61F3
:1017F00004E0034A12698243014B1A6170470000FA
:101800000010024029B1064A92690243044B9A61D2
:1018100004E0034A92698243014B9A6170470000D9
:101820000010024029B1064AD2680243044BDA6034
:1018300004E0034AD2688243014BDA60704700003B
:101840000010024030B500210022002400232D4D5D
:101850006D6805F00C0121B1042905D0082923D1B8
:1018600005E0294D056022E0274D05601FE0254D6C
:101870006D6805F47012234D6D6805F480340225FF
:1018800005EB92421CB9214D554305600BE01D4DFF
:101890006D6805F400351DB11C4D5543056002E02F
:1018A000194D5543056002E0174D056000BF00BFAC
:1018B000144D6D6805F0F0010909154D6B5C056864
:1018C000DD4045600F4D6D6805F4E061090A104D7B
:1018D0006B5C4568DD4085600A4D6D6805F46051BC
:1018E000C90A0B4D6B5C4568DD40C560054D6D68F0
:1018F00005F44041890B074D6B5CC568B5FBF3F5FA
:10190000056130BD0010024000127A0000093D0060
:10191000000000201000002008B501210820FFF77A
:1019200071FF40F6FC40ADF8000010208DF8030078
:1019300003208DF8020069461748FFF72BF90121B3
:101940000420FFF75FFF4FF40040ADF800001020C7
:101950008DF8030003208DF8020069460F48FFF759
:1019600019F900200E4908600E49C1F898010C4988
:1019700008390860091F08600949143908600849D6
:101980000C310860084908600549103908600449AD
:101990001031086008BD0000000C01400008014043
:1019A0009C81214200802142BC01214238B504467D
:1019B00001226946204600F0E5F89DF8000038BD98
:1019C000092828D2DFE800F005080C1014181C1FA5
:1019D0002300124A11601FE0104A121F11601BE021
:1019E0000E4A083A116017E00C4A0C3A116013E0F5
:1019F0000A4A143A11600FE0084A0C3211600BE0F9
:101A0000074A116008E0054A103A116004E0034AF1
:101A10001032116000E000BF00BF70479C8121427E
:101A2000BC01214221B1028842F04002028004E060
:101A300002884FF6BF731A400280704702460020AA
:101A400013890B400BB1012000E0002070470146D4
:101A5000888970478181704710B50022028802F49E
:101A600041520B884C8823438C882343CC882343E2
:101A70000C8923434C8923438C892343CC892343FA
:101A80001A430280838B4FF2FF74234083830B8AB7
:101A9000038210BD7047000008B501217D20FFF7CB
:101AA000B1FE10208DF8030003208DF802001020F5
:101AB000ADF8000069461D48FFF76CF801221021BF
:101AC0001A48FFF746F900F00BFB4FF40060ADF841
:101AD000000069461548FFF75DF80122D10213485E
:101AE000FFF737F904208DF803000002ADF800007D
:101AF00069460E48FFF74EF84FF40070ADF800004D
:101B000069460A48FFF746F84FF40040ADF8000078
:101B100069460748FFF73EF84FF48040ADF80000F3
:101B200069460348FFF736F808BD00000008014089
:101B3000000C014010B54FF480610248FFF7FEF839
:101B400010BD00000008014010B54FF400710248BC
:101B5000FFF7F4F810BD00000008014010B54FF485
:101B600000410248FFF7EAF810BD0000000C0140F8
:101B700010B54FF480410248FFF7E0F810BD0000B7
:101B8000000C01402DE9F04105460E4617460020A5
:101B900000F0FEFA05F07F0000F08EFA002405E068
:101BA000002000F089FA3055601CC4B2BC42F7DB5B
:101BB000012000F0EDFABDE8F0812DE9F041054685
:101BC0000E461746002000F0E3FA45F0800000F0D2
:101BD00073FA002404E0305D00F06EFA601CC4B2B9
:101BE000BC42F8DB012000F0D3FABDE8F081000030
:101BF00010B5044622464FF400610248FFF7A9F8E9
:101C000010BD00000008014010B50120FFF7CEFE16
:101C100000F0F80010BD000070B50024894800787D
:101C20000E286ED2DFE800F00709347072747AB3C0
:101C3000B5B7CEFAF9F8002070BD012000F050F9D8
:101C400000210F2000F04DFE00210D2000F049FE84
:101C5000FF211F2000F045FEBF21112000F041FEB2
:101C60004020FFF7A3FE00F03F052946402000F08A
:101C700038FE052000F034F91220FFF797FEFFF739
:101C80006DF87149086002206E4908700120D3E7A1
:101C9000FFF750FF012808D14021122000F021FE5B
:101CA0000320684908700120C6E7FFF74DFF40B1E7
:101CB0008021122000F015FE0420624908700120E6
:101CC000BAE7FFF74BF804465F48006884420BD33D
:101CD0005D480068201A5D490968884212D90420CD
:101CE000584908700120A7E757480068C0432044BE
:101CF00056490968884205D90420524908700120D4
:101D00009AE79DE0012097E7022095E7032093E7FB
:101D1000FFF724F84C49086001208DE7FFF70AFF20
:101D2000012808D10821122000F0DBFD07204549D9
:101D30000870012080E7FFF7FDFE012808D1082187
:101D4000122000F0CEFD07203E490870012073E705
:101D5000FFF704F804463C48006884420AD33A4836
:101D60000068201A3949096888420ED90820354987
:101D700008700AE034480068C043204433490968C9
:101D8000884202D908202F490870012054E7042016
:101D900052E7052050E7012000F0A2F8FA211120B7
:101DA00000F09FFD0021402000F09BFD072000F087
:101DB00097F8FEF7D3FF244908600A2021490870EC
:101DC000012039E7FFF7CAFE012815D104211220AE
:101DD00000F087FDFFF7CCFE012808D10121122079
:101DE00000F07FFD0B2017490870012024E70C202C
:101DF0001449087001201FE7FEF7B0FF044612489F
:101E0000006884420BD310480068201A64280FD958
:101E10000D200C4908700BE010E00DE00AE00A48C4
:101E20000068C0432044642802D90D200549087089
:101E3000012001E70620FFE60720FDE60820FBE67B
:101E40000920F9E6F0010020F4010020E001002063
:101E500070B504460D462A4621460020FFF792FE43
:101E600070BD00002DE9F8430446204601F0EFF86C
:101E700005460E4A0E4B01F0FDF8074601F0BAF890
:101E800004460094002000F02BF89DF80210062074
:101E900000F027FD9DF80110072000F022FD9DF8BD
:101EA0000010082000F01DFDBDE8F8838DEDB5A001
:101EB000F7C6903F10B50120FFF778FD00F08000D5
:101EC00000B110BD002000F00BF80120FFF76EFDFF
:101ED00040F080042146012000F003FD00BFF0E740
:101EE00070B50446FFF790FEA04200D170BD0120FE
:101EF000FFF75CFD00F0F800204340F0080529469C
:101F0000012000F0EEFC012000F0C6F800BFEDE774
:101F10002DE9F04106460C46154605201D4908707E
:101F2000FF2C00DDFF2415B11B48056003E04FF4D2
:101F30007A7019490860E1B2222000F0D2FC002139
:101F40000E2000F0CEFC00210D2000F0CAFC012084
:101F5000FFF7C6FFE1B2304600F020F8F72111206C
:101F600000F0BFFC4020FFF721FD00F03F0040F0F3
:101F700040073946402000F0B4FCFFF74DFE032037
:101F8000FFF7AEFF1220FFF711FD06200149087090
:101F9000BDE8F081F0010020E001002070B50446AA
:101FA0000D462A4621460020FFF707FE70BD10B5FA
:101FB00000F002F810BD00000CB500200190009068
:101FC0003348006840F480303149086000BF304831
:101FD000006800F4003000900198401C01900098C7
:101FE00018B90198B0F5A06FF1D12948006800F444
:101FF000003010B10120009001E000200090009816
:10200000012843D12348006840F0100021490860AE
:102010000846006820F0030008600846006840F0A9
:10202000020008601A48406819494860084640683C
:1020300048600846406840F4806048600846406850
:1020400020F47C1048600846406840F4E81048607E
:102050000846006840F08070086000BF0C480068C7
:1020600000F000700028F9D00948406820F0030013
:10207000074948600846406840F00200486000BFD9
:102080000348406800F00C000828F9D10CBD00009E
:102090000010024000200240002107E041F60E71CE
:1020A00000BF0A1EA1F1010399B2FAD1021EA0F1EC
:1020B000010398B2F2D1704710B504462146074893
:1020C000FFF7C8FC00BF01210448FFF7B7FC002858
:1020D000F9D00248FFF7BBFCC0B210BD0030014090
:1020E00000B587B001210420FFF78CFB0121080314
:1020F000FFF788FB03208DF8060018208DF80700F5
:102100002020ADF8040001A91E48FEF743FD802001
:10211000ADF8040001A91B48FEF73CFD4020ADF8D6
:10212000040001A91748FEF735FD01210846FFF715
:1021300069FB01211448FEF7B9FD0020ADF8080045
:102140004FF48270ADF80A000020ADF80C00ADF835
:102150000E00ADF810004FF40070ADF81200102022
:10216000ADF814000020ADF816000720ADF81800F7
:1021700002A90648FFF770FC01210448FFF752FC52
:1021800007B000BD000801400002300000300140EF
:1021900010B50446224610210148FEF7DAFD10BDB5
:1021A0000008014070B506460C461320FFF7FEFB01
:1021B00005462088A84201DA258800E02580E9B29A
:1021C0003046FFF745FE70BD10B50020FFF710FD4B
:1021D0000A20FFF761FF0120FFF70AFD0A20FFF741
:1021E0005BFF00200149087010BD0000F0010020D5
:1021F0000920014908707047F001002010B105491D
:10220000086003E04FF47A71024A11600121024A2A
:1022100011707047E0010020F0010020042808D16F
:102220004FF0E021096941F004014FF0E022116113
:1022300007E04FF0E021096921F004014FF0E022AE
:102240001161704702480068401C014908607047EE
:102250009001002010B51348006840F001001149BA
:10226000086008464068104908400E494860084622
:1022700000680E4908400B4908600846006820F4D1
:10228000802008600846406820F4FE0048604FF453
:102290001F008860FFF78BFE4FF000600449086064
:1022A00010BD0000001002400000FFF8FFFFF6FE26
:1022B00008ED00E010B501210D4800F05EF8A8B16E
:1022C00001210B4800F04AF8FEF7C8F900F09CFB2A
:1022D00008480068401C0749086008460068322822
:1022E00004DB0020086001200349087010BD0000D5
:1022F00000040040880100208C0100201FB501214E
:102300000220FFF75FFA40F2D170ADF8080040F20A
:10231000CF20ADF804000020ADF80A00ADF80600AB
:1023200001A90D4800F044F8012211460A4800F0C6
:1023300035F81D208DF8000002208DF801008DF881
:10234000020001208DF803006846FFF71DF8012107
:10235000014800F006F81FBD00040040CA43028295
:10236000704721B1028842F00102028004E0028835
:102370004FF6FE731A400280704730B502460020C7
:1023800000230024158A05EA0103958905EA010462
:1023900013B10CB1012000E0002030BD1AB18389D7
:1023A0000B43838102E083898B4383817047000064
:1023B000002202881D4B98420ED01D4B98420BD034
:1023C000B0F1804F08D01B4B984205D01A4B984271
:1023D00002D01A4B984204D14FF68F731A404B88A3
:1023E0001A43174B984207D0164B984204D04FF629
:1023F000FF431A40CB881A4302808B8883850B8861
:1024000003850A4B98420BD0094B984208D00E4BDB
:10241000984205D00D4B984202D00D4B984201D105
:102420000B7A03860123838270470000002C014051
:10243000003401400004004000080040000C00404F
:1024400000100040001400400040014000440140E2
:102450000048014010B501214A4800F06FF930B141
:10246000484800F033FA0121464800F0F5F8082109
:10247000444800F063F930B1424800F027FA0821DF
:10248000404800F0E9F802213E4800F057F930B129
:102490003C4800F01BFA02213A4800F0DDF840F217
:1024A0002551384800F057F9002859D020213548E7
:1024B00000F0D2F840F22551324800F0D6F8314809
:1024C00000F004FA30490870084600785A2802D013
:1024D000A5280FD106E02D48007810B901202B491E
:1024E000087016E029480078012802D10220274907
:1024F00008700EE025480078022809D103202349FE
:10250000087021480078224908700120214908708C
:1025100000BF00BF1F480078012831D11E48007855
:102520001B49097888422BDC174800781B491A4A56
:102530001278885418480078401C174908701748CA
:102540000078401C097888421ADC00201249087083
:102550000E4908700F4908700120114908700FE0FA
:102560004FF48071074800F0F6F848B1054800F0D4
:10257000ADF9054908704FF48071024800F06CF81D
:1025800010BD0000004400401E0000201800002084
:102590001A000020190000208701002004020020FA
:1025A0006801002010B586B0044601210420FFF721
:1025B00029F901214804FFF705F9254800F070F8D2
:1025C00018208DF817000420ADF8140003208DF8B2
:1025D000160005A91F48FEF7DDFA48208DF8170000
:1025E0000820ADF8140005A91A48FEF7D3FA0194A3
:1025F0000020ADF810000C20ADF80E000020ADF862
:102600000C00ADF80A00ADF8080001A9104800F070
:10261000F1F826208DF8000001208DF8030002203B
:102620008DF8010003208DF802006846FEF7ACFE2D
:10263000012240F22551064800F0B7F84021044835
:1026400000F00AF80121024800F01EF806B010BDA3
:10265000004400400008014001F40072B2F5007F20
:1026600000D100BFCA430280704710B5002200238A
:1026700040F66A14A14200D100BF0A12012494401E
:10268000A3B2DC43048010BD21B1828942F4005220
:10269000828104E082894DF6FF731A40828170477F
:1026A00010B504462048844209D101218803FFF770
:1026B000B9F800214FF48040FFF7B4F832E01B482E
:1026C000844209D101214804FFF78CF800214FF41E
:1026D0000030FFF787F825E01548844209D1012131
:1026E0008804FFF77FF800214FF48020FFF77AF885
:1026F00018E01048844209D10121C804FFF772F89C
:1027000000214FF40020FFF76DF80BE00A488442E7
:1027100008D101210805FFF765F800214FF480106A
:10272000FFF760F810BD0000003801400044004091
:1027300000480040004C004000500040024600208D
:10274000B1F5007F00D100BF13880B400BB1012011
:1027500000E00020704770B50246002400230025E9
:10276000002040F66A16B14200D100BFC1F3421505
:1027700001F01F03012606FA03F3012D02D1968909
:10278000334006E0022D02D1168A334001E0968ADA
:1027900033400C12012606FA04F41688344013B1B3
:1027A0000CB1012000E0002070BDF0B5034600240C
:1027B00000260025002040F66A17B94200D100BF6C
:1027C0001846C1F3421401F01F06012707FA06F567
:1027D000012C01D10C3004E0022C01D1103000E0BA
:1027E00014301AB107682F43076002E00768AF434F
:1027F0000760F0BD2DE9F04786B005460E4600247F
:10280000A24600BFA1460027B08900B100BF2F46F5
:102810002C8A4CF6FF700440F08804432C82AC896B
:102820004EF6F3100440B08831890843718908439B
:102830000443AC81AC8A4FF6FF400440B0890443A6
:10284000AC8201A8FEF7FEFF1F48874202D1DDF8E7
:1028500010A001E0DDF80CA0A88900F4004040B110
:102860000AEBCA0000EB0A1031684900B0FBF1F82E
:1028700007E00AEBCA0000EB0A1031688900B0FBE0
:10288000F1F86420B8FBF0F004012009642101FB99
:102890001089A88900F4004040B1322000EBC90043
:1028A000B0FBF1F000F00700044308E0322000EB39
:1028B00009106421B0FBF1F000F00F0004432C81FB
:1028C00006B0BDE8F0870000003801400146888866
:1028D000C0F308007047C1F308028280704700BF50
:1028E000FEE713B50446012201A92046FFF765F96A
:1028F0001CBD000010B56FF00400FFF78FFC0A4804
:1029000000680A49B0FBF1F00949087008460078F0
:1029100000EB4001C1EBC0104FF6FF7101EAC000AF
:102920000449088010BD00009401002000127A00C4
:1029300014000020160000200146114A12884A4364
:102940004FF0E0235A6100229A611A46126942F060
:1029500001021A6100BF4FF0E022106900F001028D
:102960001AB100F48032002AF5D04FF0E02212694B
:1029700022F001024FF0E0231A6100229A617047B1
:10298000160000200146114A12784A434FF0E02316
:102990005A6100229A611A46126942F001021A61D4
:1029A00000BF4FF0E022106900F001021AB100F4FC
:1029B0008032002AF5D04FF0E022126922F00102A5
:1029C0004FF0E0231A6100229A6170471400002042
:1029D00010B5FFF78FFF4FF4E130FFF7E3FD002064
:1029E000FDF708FEFEF75CFB00F03AF8FEF794FFF7
:1029F000FEF7E4F9FDF78AFCFFF780FC40F2DC50BB
:102A0000FFF79AFF10BD0000002024E000EB40011A
:102A100001EBC001114A02EB01110978C9B100EBC9
:102A2000400101EBC00102EB01114989B1F5167FAC
:102A30000FDA00EB400101EBC00102EB0111498903
:102A4000491C00EB400202EBC002044B03EB0212F4
:102A50005181411CC8B20528D8DB704724020020F0
:102A60000EB5044A07CA8DE80700034801686846A6
:102A700088470EBD70320008AC01002010B500245C
:102A8000184988698047044624B1022C08D0032CD9
:102A900025D11EE01348816840F6B83088471FE012
:102AA00011480068C0431149C1F8B0011048002125
:102AB0000160416001810B480E49C2680C48904793
:102AC0000848816840F6B830884701200A490870F4
:102AD00006E00448816840F6B830884700E000BF4F
:102AE00000BF10BDAC010020B00121420000214216
:102AF000F80100202000002022000020FFF768FFDE
:102B0000FEF7EAFA00F0E4F907E0FFF7B7FFFEF797
:102B1000F3FA00F0E5F8FEF7A5FAF6E7FCB50021B8
:102B200000220020002310E003EB430404EBC30465
:102B3000684D05EB041424780DF803400024664D1D
:102B400005EB43152C805C1CE3B2052BECDB042465
:102B500018E0002312E01DF803605D1C1DF805500D
:102B6000AE4209DD1DF803105D1C1DF805500DF87F
:102B700003505D1C0DF805105D1CEBB2A342EADBAF
:102B8000631EDCB2002CE4DC002101E04B1CD9B256
:102B90001DF801300BB90529F8DB05297BDA94E033
:102BA000002201E0531CDAB21DF8013002EB4204AE
:102BB00004EBC204474D05EB04142478A342F1D181
:102BC000002373E00324454D2C8002EB420404EB08
:102BD000C204404D05EB041424783F4D05EB40152D
:102BE0002C805C1C3C4D05EB40156C80002415E0EE
:102BF00002EB420505EBC205364E06EB05150E3518
:102C000003EB830605EB860535F81460324D05EBC2
:102C10004017A51C27F81560651CECB2082CE7DBF3
:102C2000441C2D4D05EB4015AC8202EB420404EB35
:102C3000C204284D05EB0414247A1C4104F001045D
:102C400014B14BF2D51401E04BF2CF64224D05EBE9
:102C500040152C8302EB420404EBC2041D4D05EB2E
:102C60000414247A1C4104F0010414B14BF6CF245F
:102C700001E04BF6AA74184D05EB40156C8302EB8E
:102C8000420404EBC204134D05EB0414247B1CB175
:102C90004BF2EE2402E01BE04CF2BC140E4D05EBAF
:102CA0004015EC83441CE0B25C1CE3B202EB42042E
:102CB00004EBC204074D05EB041464789C4202DD6A
:102CC0000528FFF67FAF4B1CD9B20529FFF668AF88
:102CD000FCBD00002402002026000020A8010020E6
:102CE0002DE9F0410027002576480078002872D0B1
:102CF0000024BBE004EB440000EBC400724901EB8C
:102D000000100078002865D004EB440000EBC400FC
:102D100001EB00104089B0F5FA7F5DDD04EB440063
:102D200000EBC40001EB0010007B002854D101200F
:102D300004EB440101EBC401634A02EB0111087387
:102D4000002004EB440101EBC40102EB0111087205
:102D500001E0681CC5B25D4800EB4510008804EB3B
:102D6000440101EBC401584A02EB01110978884281
:102D700001D0052DEDDB052D76DA00261EE04BF2A5
:102D8000EE20A919514A02EB4111C883A91902EB9F
:102D90004111097D491EC8B20021FEF711FE4BF218
:102DA000CF60A919494A02EB411108834BF6AA707A
:102DB000A91902EB41114883701CC6B204EB440010
:102DC00000EBC400404901EB00104078B042D6DC73
:102DD000FEF7C6FB48E073E004EB440000EBC400E0
:102DE000394901EB00104089B0F5FA7F3CDA04EB79
:102DF000440000EBC40001EB0010007BA0B30020F6
:102E000004EB440101EBC4012F4A02EB01110873EA
:102E100001E0681CC5B22D4800EB4510008804EBAA
:102E2000440101EBC401284A02EB011109788842F0
:102E300001D0052DEDDB052D16DA002008E04CF25F
:102E4000BC112A18214B03EB4212D183411CC8B29A
:102E500004EB440101EBC4011B4A02EB0111497868
:102E60008142ECDCFEF77CFB601CC4B2052CFFF653
:102E700041AF002014E000EB400101EBC001124A19
:102E800002EB0111097849B100EB400101EBC001EF
:102E900002EB0111097B012900D10127411CC8B2B5
:102EA0000528E8DB012F04D101210520FEF788FD6C
:102EB00003E000210520FEF783FD00200149087092
:102EC000BDE8F0818C0100202402002026000020B3
:102ED00010B5FDF7F7FBFEF7F1FA40F2712104207F
:102EE000FEF7A6F810BD000010B50446FEF7D4FDAD
:102EF000FFF76AF903E04FF4FA70FFF7CDF8062008
:102F0000FEF754FD6C28F6D1FEF7D4FF1CB135480E
:102F100094E80E000EC0334C6079092801DD0920C9
:102F20006071E079042801DD0420E071E079012876
:102F300001DA0120E071A0790C2801DD0C20A071DC
:102F4000A079062801DA0620A07194F9040014285B
:102F500001DD142020712068FEF784FF6079224A89
:102F6000105CE279521E214B9A5C40EA02011D205E
:102F7000FFF7B7FCA079801F1D4A105C40F00701E5
:102F80001E20FFF7AEFCFF211F20FFF7AAFC0C213B
:102F90002620FFF7A6FC94F9040011280ADD207909
:102FA0007B30C1B20920FFF79CFC87214D20FFF741
:102FB00098FC09E020797E30C1B20920FFF791FC2E
:102FC00084214D20FFF78DFC3B210B20FFF789FC6E
:102FD000208901122020FFF784FC217A2120FFF7AD
:102FE00080FC10BDE4010020D3010020CF010020AF
:102FF000C80100204FEA1153A3F58063D3F11E03EB
:10300000A8BFD3F1200C08DB4FF0004242EAC122F6
:1030100052EA505232FA03F0704709420BD4102B97
:10302000C4BF0020704703F5787CBCF1FF3F05D09A
:103030004FF0FF3070474FF00000704770B500F060
:10304000C3F800BF4992248000207047F0E7B0FA2F
:1030500080F310FA03F10AD0C3F11D0303F5806376
:103060004FEA41504FEA035202EBD12170474FF033
:1030700000007047DFF848C170B51CEA111E1EBF82
:103080001CEA13159EEA0C0F95EA0C0F00F06F80F6
:1030900081EA030423EA4C134EEAD47E21EA4C1160
:1030A00041F4801143F48013AE44A1FB024CA0FB19
:1030B0000365AEF17F7E361955EB0C05A1FB034C81
:1030C0004CF10003A0FB021C16EB0C06654153F10A
:1030D0000003094218BF46F0010613F4007F0BD12C
:1030E0004FEA03314FEA0530340341EA155140EA13
:1030F00016506FF003020AE04FEAC3214FEAC520E1
:10310000F40241EA555140EA56506FF0020202EBD8
:103110002E4201EB025585EACE710AD05FEA440CDB
:1031200018BF24F0004450F1000041F1000120EAF2
:10313000D47040F2FE7C624500D270BDA84214BF3C
:103140004FF080444FF04044002E08BF0024BEF1F1
:10315000806FA8BFA1F1C041BDE8704080F28280BD
:103160004FF0000001F1C04101F0004170479EEABC
:103170000C0F0CEA131518BF95EA0C0F06D04FF090
:10318000000081EA030E0EF0004170BD00F01CF853
:103190008900013E00F007B800F009B84FEA430C7F
:1031A0005FEA5C5C08D081EA030100F05BB84FEA9B
:1031B000410C5FEA5C5CF6D14FF0000001497047BA
:1031C0000000FF070000F87F0EF1020E2EF0030E44
:1031D0005EF8046B364205D4012A43EB030515F56E
:1031E000001F12D8012841EB010C1CF5001F0CD860
:1031F0000ED14FEAD17C15F5001F0CEB4C0C0CF1F5
:10320000020C08BF4CEBD37C04E04FF0080C01E04B
:103210004FEAD37C0CEB4C0526FA05F606F00706C0
:10322000B6F1040C06D20EEB860CBDE870404CF0F3
:10323000010C6047DFE80CF0090B02024FF000417F
:103240004FF00000A1F5002170BD1946104601287D
:1032500051EB010418BFD4F5001484BF002001F025
:10326000004170BD0808A0F500114FEA3101704718
:10327000C092ED1914090801050000009C320008F5
:1032800000000020F80100002801000814330008A5
:10329000F8010020C00C000084010008412D01024B
:1032A000030404C0090607080902040608920C1268
:1032B0000EBA2001213A04121A020609FD20091F44
:1032C0002022F0032A5AA584A24A044009010203DD
:1032D000040607080913E92E1408C9211B08FD0478
:1032E0001AA50413111F1B08F10813191C100D084F
:1032F00060708090A0B0C0020406082E10203040FC
:1033000050113123E803B00AC092ED1914070701E8
:043310000F000000AA
:04000005080000ED02
:00000001FF
